:100000000C9463000C948B000C948B000C948B006C
:100010000C948B000C948B000C948B000C948B0034
:100020000C948B000C948B000C948B000C948B0024
:100030000C948B000C948B000C948B000C948B0014
:100040000C9436030C948B000C9404030C94DE0285
:100050000C948B000C948B000C948B000C948B00F4
:100060000C948B000C948B000000000023002600F1
:10007000290000000008000201000003040700003E
:1000800000000000000000000000250028002B00F8
:1000900000000000240027002A00040404040404D3
:1000A0000404020202020202030303030303010227
:1000B00004081020408001020408102001020408F6
:1000C0001020C9030E0611241FBECFEFD8E0DEBFFB
:1000D000CDBF22E0A2E8B1E001C01D92AE32B2076E
:1000E000E1F711E0A0E0B1E0E8EFF0E102C0059037
:1000F0000D92A238B107D9F710E0C2E6D0E004C0F3
:100100002197FE010E947706C136D107C9F70E94E8
:100110000D040C946F080C940000AF92BF92CF9224
:10012000DF92EF92FF920F931F93CF93DF936C01B7
:100130007B018B01040F151FEB015E01AE18BF0898
:10014000C017D10759F06991D601ED91FC9101904A
:10015000F081E02DC6010995892B79F7C501DF9162
:10016000CF911F910F91FF90EF90DF90CF90BF90B4
:10017000AF900895FC0144815581608171818DE8C3
:1001800091E00C948D00FC01538D448D252F30E0BF
:10019000842F90E0821B930B541710F0CF96089594
:1001A00001970895FC01918D828D981761F0A28DC1
:1001B000AE0FBF2FB11D5D968C91928D9F5F9F7387
:1001C000928F90E008958FEF9FEF0895FC01918D3D
:1001D000828D981731F0828DE80FF11D858D90E0AA
:1001E00008958FEF9FEF0895FC01918D228D892F47
:1001F00090E0805C9F4F821B91098F73992708952F
:100200008DE891E00E94F40021E0892B09F420E0C0
:10021000822F089580E090E0892B29F00E94000150
:1002200081110C9400000895FC01A48DA80FB92F32
:10023000B11DA35ABF4F2C91848D90E001968F730E
:100240009927848FA689B7892C93A089B1898C912D
:10025000837080648C93938D848D981306C002887C
:10026000F389E02D80818F7D80830895EF92FF9246
:100270000F931F93CF93DF93EC0181E0888F9B8DC9
:100280008C8D98131AC0E889F989808185FF15C083
:100290009FB7F894EE89FF896083E889F9898081A6
:1002A0008370806480839FBF81E090E0DF91CF9175
:1002B0001F910F91FF90EF900895F62E0B8D10E097
:1002C0000F5F1F4F0F731127E02E8C8D8E110CC006
:1002D0000FB607FCFACFE889F989808185FFF5CF51
:1002E000CE010E941401F1CFEB8DEC0FFD2FF11D1B
:1002F000E35AFF4FF0829FB7F8940B8FEA89FB898E
:1003000080818062CFCFCF93DF93EC01888D8823EB
:10031000B9F0AA89BB89E889F9898C9185FD03C068
:10032000808186FD0DC00FB607FCF7CF8C9185FF4D
:10033000F2CF808185FFEDCFCE010E941401E9CF7D
:10034000DF91CF91089590E0FC01EE58FF4F24918A
:10035000FC01E255FF4F3491FC01E656FF4FE4915A
:10036000EE23C1F1222339F02330E9F090F421305B
:1003700001F1223011F1F0E0EE0FFF1FE859FF4FBD
:10038000A591B491EC91E32381E090E029F580E020
:1003900008952730A9F02830C9F0243061F7809102
:1003A00080008F7D03C0809180008F7780938000D4
:1003B000E2CF84B58F7784BDDECF84B58F7DFBCF50
:1003C0008091B0008F778093B000D5CF8091B0003E
:1003D0008F7DF9CF80E090E008953FB7F894809149
:1003E000870190918801A0918901B0918A0126B579
:1003F000A89B05C02F3F19F00196A11DB11D3FBF5D
:10040000BA2FA92F982F8827BC01CD01620F711D2B
:10041000811D911D42E0660F771F881F991F4A9525
:10042000D1F708958F929F92AF92BF92CF92DF92B1
:10043000EF92FF924B015C010E94ED016B017C0188
:100440000E94ED016C197D098E099F09683E734079
:1004500081059105A8F321E0821A9108A108B1084D
:1004600088EEC80E83E0D81EE11CF11C81149104B3
:10047000A104B10429F7FF90EF90DF90CF90BF90D7
:10048000AF909F908F900895FC0101900020E9F7B4
:100490003197AF01481B590BBC018DE891E00C94DA
:1004A0008D008F929F92AF92BF92CF92DF92EF9288
:1004B000FF920F931F93CF93DF93CDB7DEB7A19732
:1004C0000FB6F894DEBF0FBECDBF6C01990FEE08DA
:1004D000FF08F7FE47C06DE28DE891E00E9436010B
:1004E0008C0122273327A9012C193D094E095F09E8
:1004F00019A2CE0181967C019AE0892E912CA12C23
:10050000B12CCA01B901A50194010E945506605D94
:10051000F70162937F01211531054105510589F7E6
:1005200090E080E0309719F0CF010E944402080F5C
:10053000191F88E391E00E944402800F911FA19649
:100540000FB6F894DEBF0FBECDBFDF91CF911F91E4
:100550000F91FF90EF90DF90CF90BF90AF909F9062
:100560008F900895A701960119A28E010F5D1F4F6C
:100570008AE0C82ED12CE12CF12CCA01B901A701C7
:1005800096010E945506605DF80162938F01211566
:1005900031054105510589F7309729F0CF010E94B7
:1005A00044028C01C6CF10E000E0C3CFFC01808183
:1005B0009181009711F00C94190708951F920F92E2
:1005C0000FB60F9211242F933F934F935F936F9326
:1005D0007F938F939F93AF93BF93EF93FF938DE898
:1005E00091E00E941401FF91EF91BF91AF919F9113
:1005F0008F917F916F915F914F913F912F910F90CC
:100600000FBE0F901F9018951F920F920FB60F926A
:1006100011242F938F939F93EF93FF93E0919D016C
:10062000F0919E018081E091A301F091A40182FDEF
:100630001BC090818091A6018F5F8F732091A701CD
:10064000821741F0E091A601F0E0E357FE4F958F4D
:100650008093A601FF91EF919F918F912F910F9021
:100660000FBE0F901F9018958081F4CF1F920F92AC
:100670000FB60F9211242F933F938F939F93AF93B5
:10068000BF938091830190918401A0918501B091E5
:1006900086013091820123E0230F2D3758F5019612
:1006A000A11DB11D20938201809383019093840149
:1006B000A0938501B0938601809187019091880174
:1006C000A0918901B0918A010196A11DB11D80936D
:1006D000870190938801A0938901B0938A01BF910B
:1006E000AF919F918F913F912F910F900FBE0F90DF
:1006F0001F90189526E8230F0296A11DB11DD2CF99
:10070000EF92FF920F931F93CF93DF93EC017B0146
:10071000198218821B821A821D821C82FB010190A1
:100720000020E9F731978F01061B170BB8016F5FA7
:100730007F4F90E080E00E94A2070097B9F0998374
:1007400088831B830A832C813D81232B11F4FC01B8
:1007500010821D830C83B70188819981DF91CF912D
:100760001F910F91FF90EF900C94680888819981F8
:10077000009711F00E941907198218821D821C82AD
:100780001B821A82DF91CF911F910F91FF90EF9002
:100790000895EDE8F1E01382128288EE93E0A0E084
:1007A000B0E084839583A683B7838AE291E0918346
:1007B000808385EC90E09587848784EC90E0978730
:1007C000868780EC90E0918B808B81EC90E0938B1E
:1007D000828B82EC90E0958B848B86EC90E0978BFB
:1007E000868B118E128E138E148E6BE371E088E16E
:1007F00091E00E94800361E471E080E191E00E9459
:10080000800369E471E088E091E00E94800363E581
:1008100071E080E091E00C948003789484B582606C
:1008200084BD84B5816084BD85B5826085BD85B594
:10083000816085BD80916E00816080936E00109212
:10084000810080918100826080938100809181008D
:10085000816080938100809180008160809380001E
:100860008091B10084608093B1008091B00081607C
:100870008093B00080917A00846080937A008091A8
:100880007A00826080937A0080917A008160809300
:100890007A0080917A00806880937A001092C1007B
:1008A000E0EBF0E02491ECE9F0E084918823C1F0E2
:1008B00090E0880F991FFC01E057FF4FC591D4913C
:1008C000FC01EA57FF4FA591B4919FB7F894888136
:1008D000E22FE0958E2388838C91E823EC939FBFD1
:1008E00082E0B82E9FECA92E26E0922EC0E0D0E048
:1008F00007E010E038E0E32EF12CE0919D01F0914B
:100900009E01B082E0919901F0919A011082E091EC
:100910009B01F0919C01A0821092A501E091A101A0
:10092000F091A2019082E0919F01F091A00180815D
:1009300080618083E0919F01F091A00180818860B7
:100940008083E0919F01F091A00180818068808385
:10095000E0919F01F091A00180818F7D808382E0F2
:100960000E94A3016C0183E00E94A3018824839468
:10097000009709F4812CC114D10409F4A2C0892B79
:1009800009F09FC068EC70E080E090E00E941202E5
:1009900080918B0190918C01019690938C018093B2
:1009A0008B01019729F58BE591E00E94440288E3D1
:1009B00091E00E94440288E191E00E94BA0084E73D
:1009C00091E00E94440280911E0190911F010E94BB
:1009D000510280918B0190918C01019690938C0132
:1009E00080938B0162E370E080E090E00E9412024D
:1009F00080918B0190918C010397E9F480E191E063
:100A00000E94BA0086E791E00E944402809116019C
:100A1000909117010E94510280918B0190918C015D
:100A2000019690938C0180938B0162E370E080E0EB
:100A300090E00E94120280918B0190918C010597A9
:100A4000E9F488E091E00E94BA0084E791E00E9416
:100A5000440280910E0190910F010E9451028091F9
:100A60008B0190918C01019690938C0180938B0166
:100A700062E370E080E090E00E94120280918B01BE
:100A800090918C010797E9F480E091E00E94BA0010
:100A900088E791E00E94440280910601909107014D
:100AA0000E94510280918B0190918C01019690934C
:100AB0008C0180938B0162E370E080E090E00E9403
:100AC0001202CD2809F09FC0882009F49CC068EC70
:100AD00070E080E090E00E94120280918B01909182
:100AE0008C01019790938C0180938B010197C1F445
:100AF00080E091E00E94BA0088E791E00E94440201
:100B000080910601909107010E94510262E370E01A
:100B100080E090E00E941202F0928C01E0928B0142
:100B200080918B0190918C010397E9F488E191E029
:100B30000E94BA0084E791E00E94440280911E0165
:100B400090911F010E94510262E370E080E090E00A
:100B50000E94120280918B0190918C0101979093D9
:100B60008C0180938B0180918B0190918C01059772
:100B7000E9F480E191E00E94BA0086E791E00E94EA
:100B8000440280911601909117010E94510262E384
:100B900070E080E090E00E94120280918B019091C1
:100BA0008C01019790938C0180938B0180918B0134
:100BB00090918C010797E9F488E091E00E94BA00D7
:100BC00084E791E00E94440280910E0190910F0110
:100BD0000E94510262E370E080E090E00E94120205
:100BE00080918B0190918C01019790938C0180935F
:100BF0008B0180918B0190918C0197FF04C0109321
:100C00008C0100938B01209709F477CE0E9400019C
:100C1000882309F472CE0E9400006FCE80E091E03C
:100C20000E94D60288E091E00E94D60280E191E025
:100C30000E94D60288E191E00C94D6022F923F9256
:100C40004F925F926F927F928F929F92AF92BF92DC
:100C5000CF92DF92EF92FF920F931F93CF93DF9388
:100C6000CDB7DEB7CA1BDB0B0FB6F894DEBF0FBEE5
:100C7000CDBF09942A88398848885F846E847D8432
:100C80008C849B84AA84B984C884DF80EE80FD8034
:100C90000C811B81AA81B981CE0FD11D0FB6F894AA
:100CA000DEBF0FBECDBFED010895A1E21A2EAA1B33
:100CB000BB1BFD010DC0AA1FBB1FEE1FFF1FA2170C
:100CC000B307E407F50720F0A21BB30BE40BF50B09
:100CD000661F771F881F991F1A9469F76095709592
:100CE000809590959B01AC01BD01CF010895EE0F59
:100CF000FF1F0590F491E02D09940F931F93CF935C
:100D0000DF938230910510F482E090E0E0912C02B4
:100D1000F0912D0230E020E0B0E0A0E0309799F4AF
:100D20002115310509F44AC0281B390B243031053F
:100D3000D8F58A819B816115710589F1FB01938347
:100D40008283FE0111C040815181028113814817C5
:100D50005907E0F04817590799F4109761F0129677
:100D60000C93129713961C933296CF01DF91CF917B
:100D70001F910F91089500932C0210932D02F4CF30
:100D80002115310551F04217530738F0A901DB0155
:100D90009A01BD01DF01F801C1CFEF01F9CF9093B6
:100DA0002D0280932C02CDCFFE01E20FF31F819321
:100DB00091932250310939832883D7CF20912A0279
:100DC00030912B02232B41F42091220130912301F9
:100DD00030932B0220932A0220912001309121018F
:100DE0002115310541F42DB73EB7409124015091B2
:100DF0002501241B350BE0912A02F0912B02E2170A
:100E0000F307A0F42E1B3F0B2817390778F0AC012D
:100E10004E5F5F4F2417350748F04E0F5F1F50930A
:100E20002B0240932A02819391939FCFF0E0E0E060
:100E30009CCFCF93DF930097E9F0FC0132971382A8
:100E40001282A0912C02B0912D02ED0130E020E041
:100E50001097A1F420813181820F931F20912A02E3
:100E600030912B022817390709F061C0F0932B024B
:100E7000E0932A02DF91CF910895EA01CE17DF07B0
:100E8000E8F54A815B819E0141155105B1F7E90101
:100E9000FB83EA8349915991C40FD51FEC17FD07D5
:100EA00061F4808191810296840F951FE9019983F5
:100EB0008883828193819B838A83F0E0E0E01296AD
:100EC0008D919C9113970097B9F52D913C911197B5
:100ED000CD010296820F931F20912A0230912B029E
:100EE0002817390739F6309751F510922D021092D4
:100EF0002C02B0932B02A0932A02BCCFD383C283CF
:100F000040815181840F951FC817D90761F44E5F46
:100F10005F4F88819981480F591F518340838A818F
:100F20009B81938382832115310509F0B0CFF09323
:100F30002D02E0932C029ECFFD01DC01C0CF138275
:100F40001282D7CFB0E0A0E0E8EAF7E00C942006E8
:100F50008C01009751F4CB010E947D068C01C801E1
:100F6000CDB7DEB7E0E10C943C06FC01E60FF71FBD
:100F70009C0122503109E217F30708F49DC0D90102
:100F8000CD91DC911197C617D70798F0C530D105E0
:100F900030F3CE0104978617970708F3C61BD70BCB
:100FA0002297C193D1936D937C93CF010E9419072F
:100FB000D6CF5B01AC1ABD0A4C018C0E9D1EA091D0
:100FC0002C02B0912D02512C412CF12CE12C1097C8
:100FD00031F580912A0290912B028815990509F02C
:100FE0005CC04616570608F058C0809120019091C9
:100FF0002101009741F48DB79EB740912401509193
:101000002501841B950BE817F90708F055C0F093EC
:101010002B02E0932A02F90171836083A0CF8D91A6
:101020009C91119712966C90129713967C9013973F
:10103000A815B90559F56C0142E0C40ED11CCA14BB
:10104000DB0420F1AC014A195B09DA01129615970D
:1010500080F06282738251834083D9016D937C93C7
:10106000E114F10471F0D7011396FC93EE931297FB
:1010700076CF22968C0F9D1FF90191838083F30117
:10108000EFCFF0932D02E0932C0269CF481659065A
:1010900008F42C017D01D3019ACFCB010E947D067B
:1010A0007C01009749F0AE01B8010E945F08C801B9
:1010B0000E941907870153CF10E000E050CFFB01D9
:1010C000DC0102C001900D9241505040D8F70895C4
:1010D000FB01DC0101900D920020E1F7089510E082
:1010E000C2E6D0E004C0FE010E9477062196C33616
:0810F000D107C9F7F894FFCF06
:1010F80000000000000026000000000000001900A9
:1011080000000000000034000000000000002D0076
:1011180000002E0280000000000036018D00C30090
:101128008301F400D200E6000D0A0074616B697354
:101138000063686565746F7300746F73696E6974B2
:101148006F7300646F7269746F73004E6F6D6272B3
:10115800652020202020202020202043616E7469F3
:1011680064616400202020202020202020202020CE
:02117800000075
:00000001FF
